:1007C8004D50553630353020496E69636961646132
:1007D800004F6666736574732053657461646F7344
:1007E800004279506173732053657461646F0048E7
:1007F8004D433538383320496E69636961646F0049
:05080800E7E7E7E7E768
:100AF300C108410040000141EA0140CB013001013E
:080B03003F0001430001420321
:0A0C5F008FE7E5E630E1FBAFE72286
:020B3B00AE0505
:100B3D00C2E9120C5FAD07AF06120C5FD2E9AF052B
:010B4D002285
:0C0C0500C2E9120C5FE4FF120C5FD2E9A0
:010C110022C0
:0609D3008B098A0A890B62
:1009D900C2E9120C5FAE07E4FDEDC3950C5017E4B4
:1009E900FF120C5FAB09AA0AA90B8D82758300EF70
:0A09F9001200AE0D80E3D2E9AF0654
:010A030022D0
:06096F008B178A1889199C
:10097500C2E9120C5FAE07E4FDEDC3951A5018AB42
:10098500170519E519AA187002051814F912005669
:0B099500FF120C5F0D80E2D2E9AF06FC
:0109A0002234
:100B9800E4F520C208C2E87D0F7F20120B3BD2E8A3
:010BA800222A
:1009A1008E108F11C2E87D0E7F20120B3B7BFF7AE8
:1009B100087908751A057F2A12096F7B017A007977
:1009C1002085111A7FA012096FD2E8A20472055086
:0209D100FA2208
:03004B000203B4F9
:1003B400C0E0C083C082C0D075D000C000C001C0FE
:1003C40002C003C005C006C0077F07120C058F20BA
:1003D4003006307B017A007900750C207F611209A8
:1003E400D3E4FD7FE2120B3BD2087F60120C059030
:1003F4000040EFF0D39420400AE4F0FD7FE2120BBA
:100404003BC208300407E4FD7FE1120B3B300507D3
:10041400E4FD7FE1120B3B7D707F27120B3BD0077D
:10042400D006D005D003D002D001D000D0D0D082E5
:05043400D083D0E0328E
:060283008B0D8A0E890FAD
:100289007C07C2E8D2EAD2B9C2E8D2EAE51514601D
:100299000F146014146016240370155304F98010A8
:1002A9005304FB43040280085304FD800043040403
:1002B900E514600E1460101470135304F7430420FE
:1002C900800B5304D780065304DF430408AB10AAFC
:1002D90011A912751A057F3012096FAB0DAA0EA963
:1002E9000F751A057F2A12096F7D017F22120B3BB8
:1002F900E4FD7F21120B3BE4FD7F24120B3BAD1380
:100309007F25120B3BAD047F26120B3B7D017F3C01
:0F031900120B3B7D077F3D120B3BD2AF020B98BF
:020ABC008D0D9E
:100ABE007C007D031200D0AB07AA06E4F9F8FF7E96
:0B0ACE00097D3D12080DAD0D020BE983
:0E0BE900AB078D30754000C374FF9BF54122B1
:03000B00020A9E48
:100A9E00C0E0C0D0153FE53FD3940050067543012A
:0E0AAE0085303F85408C85418AD0D0D0E03223
:0F0BCB00758931E4F58CF58AD2A9D2AFD28C228C
:0F0BDA00758931E4F58CF58AC2A9D2AFC28C229D
:100B4E00E4F593F594F59EF59F5393EF5393FB4382
:030B5E009F532280
:10090500120B4E7510FF75110875120875131E75BB
:1009150014017515037BFF7A0879081202837F019C
:10092500120A7D1201DB7D017FC87E00120ABC120E
:050935000BCBD2822271
:100B7400120905E54360FCE4F543120A041205EA90
:020B840080F1FE
:1001DB00E4FB7D6B7F68120BBA7BFF7A0779C87DD6
:1001EB001012093A7F647E0012000E7BFF7AFE7DAF
:1001FB00067F68120B617B3B7AFA7D087F68120BD6
:10020B00617B807A087D0A7F68120B617B3B7A00E9
:10021B007D137F68120B617B0F7A007D157F68124F
:10022B000B617BF77AFF7D177F68120B617BFF7A7F
:10023B000779D97D0F12093A7F647E0012000E7583
:10024B0010017B017D377F6812069E7BFF7A077951
:10025B00E97D0D12093A7F647E0012000EE4FB7DEE
:10026B00027F1E120BBA7BFF7A0779F77D101209FA
:08027B003A7F647E0002000ED0
:100A0400751800751900751A227B0E7D3B7F6812DC
:100A140004BC7B007A0079427511017F1E1208CB59
:0E0A24007B007A0079317511067F1E0206EC08
:1005EA00900020E522F0A3E523F0A3E524F0A3E59B
:1005FA0025F0A3E526F0A3E527F0A3E52AF0A3E575
:10060A002BF0A3E52CF0A3E52DF0A3E52EF0A3E54E
:10061A002FF0A3E531F0A3E532F0A3E535F0A3E529
:10062A0036F0A3E533F0A3E534F0A3E528F0A3E51B
:0C063A0029F07F147E001209A1020B9829
:06093A008B0D8A0E890FEF
:10094000E4FFEFC39D501EAB0DAA0EA90F8F827559
:10095000830012006FFE74202FF582E43400F583CB
:0F096000EEF00F80DDAF057E001209A1020B98AB
:0300530002089010
:10089000C0E0C0F0C083C082C0D075D000C000C02E
:1008A00001C002C003C004C005C006C007120C731B
:1008B000D007D006D005D004D003D002D001D0009C
:0B08C000D0D0D082D083D0F0D0E03246
:0B0AD9007FFA7E00120AE47FFA7E0024
:0F0AE4000000000000EF1F70011E144E70F22280
:10000E00AD07AC06120AD9120AD9ED1D70011C14E7
:04001E004C70F1220F
:0300230002073998
:10073900C0E0C0D075D000C000309819C298E562F9
:10074900C394085010746A2566F8A699E56604549E
:1007590007F566056230991AC299E563D394014099
:100769000F74722565F8E6F599E565045407F56592
:090779001563D000D0D0D0E032AD
:10078200C2ACE4F565F567F563F564F566F562D22A
:100792009CC29FD29E43878043D880EF24FC601383
:1007A20024FE60091470127C037DF780107C037DA7
:1007B200F3800A7C037DCC80047C037DE68DAA8CC9
:0507C200BAC299D2AC9F
:0107C700220F
:10002600E563D3940850F9C2ACE56370048F9980F8
:100036000E74722567F8A607E567045407F5670589
:0400460063D2AC22B3
:03004E00AF62227C
:0A0C6900E56370037F01227F002283
:100B0C00E56260FCC2AC746A2564F8E6FFE5640437
:080B1C005407F5641562D2AC28
:010B240022AE
:070BA90014F9120056F5DA01
:0A0BB000E4F568E56860FCAF692217
:0A0C730085E169E5695401F5682286
:0B0C1200EF600443E2802253E27F22E7
:0B0C1D00EF600443E2402253E2BF22DC
:0B0C2800EF600453E2DF2243E22022D1
:0B0C3300EF600453E2EF2243E21022C6
:06000300EF547FF5D92245
:0E0BF700EF25E025E0FFE5E254F34FF5E222A2
:0B0C3E00EF700443E2022253E2FD22AB
:0B0C4900EF600443E2012253E2FE22B0
:0B0C5400EF600475E1DF2275E1202253
:100A7D00AE077F01120C49AF06120BF7E4FF120C03
:100A8D003E43A60443B804E4F5E10F120C54C2C270
:010A9D002236
:100A3200E47550FFF54FF54EF54D85E151E5515402
:100A420001F552E5515402F5537F0A7E00120AE481
:060A5200E55260E6AF5121
:010A5800227B
:100B250043E210EF25E04DF5DA120BB0EF30E103AB
:050B35007F00227F019A
:010B3A002298
:0608CB008B0E8A0F89105C
:1008D100E4FD120B25AE07AF111511EFD3940040C3
:0408E1001DBE011A1D
:1008E500AB0E0510E510AA0F7002050F120BA98FAC
:0808F50012E51230E1DDE4FE22
:0708FD0080D943E220AF06A1
:0109040022D0
:0606EC008B0E8A0F89103D
:1006F2007D01120B258F12E5127003120439AF111E
:100702001511EF602FE512602BE511700343E22013
:10071200120BB0AB0E0510E510AA0F7002050F14F4
:10072200F9E5DA12009CEF20E1047F0180027F00EC
:060732008F1280CAAF1215
:01073800229E
:10043900E5E2540CF51E5380CFE59354CF4430F5D3
:100449009375E20375E20775E206E59354CF4420FC
:10045900F5937F057E00120AE45393CF7F057E0052
:10046900120AE4E4F51DE59354CF4410F5937F0592
:100479007E00120AE45393CF7F057E00120AE40539
:100489001DE51DC3940840DE7F057E00120AE4E5E0
:100499009354CF4410F5937F057E00120AE4E59347
:1004A90054CF4430F59375E20775E203E51E440322
:0204B900F5E26A
:0104BB00221E
:100BBA008B127516007517007518127B01120851F1
:010BCA002208
:04085100AE03AC0541
:10085500E4FD120B25AD078CDA120BB0EF30E10287
:10086500E4FDAC061EECD39400401ABD0117AB168F
:100875000518E518AA1770020517120BA9EF30E144
:0A088500E1E4FD80DD43E220AF0551
:01088F002246
:100B86008B128A1389148B188A19891A7B0112040D
:020B9600BC227F
:0604BC008B17AE07AC0532
:1004C200E4FD120B258F1C8CDA120BB08F1BE51B7F
:1004D20030E103E4F51CAF067D01120B258F1CE50C
:1004E2001C7003120439AF171517EF6032E51C6058
:1004F2002EE517700343E220120BB08F1BAB1805D9
:100502001AE51AAA197002051914F9E5DA12009C03
:10051200E51B20E1047F0180027F008F1C80C7AFB2
:010522001CBC
:0105230022B5
:06069E008F0D8D0E8B0F85
:1006A4007B007A007911120B86E510601774017EC5
:1006B40000A80F088005C333CE33CED8F9FFEF4529
:1006C40011FF801874017E00A80F088005C333CE83
:1006D40033CED8F9F4FFE4FEEF5511FF8F11AB11BF
:0706E400AD0EAF0D120BBAC1
:0106EB0022EC
:060524008F548D558B562B
:0C052A007B007A007959120B86EF604EBE
:1005360074017E00A857088005C333CE33CED8F9A0
:1005460024FFFFEE34FFFEC3E556955704FDEFA8E2
:1005560005088005C333CE33CED8F9F55AE558A839
:1005660005088002C333D8FCF558E55A5258F452B0
:0E05760059E5584259AB59AD55AF54020BBA76
:020584007F00F6
:010586002252
:020A59008B5DB3
:100A5B007B007A007961120B86AE5D7401A80608E3
:100A6B008002C333D8FC5561AB5EAA5FA96012004C
:010A7B009CDE
:010A7C002257
:020646008B46E1
:0E0648007B007A00794B120B86AD07ED604502
:1006560074017E00A847088005C333CE33CED8F98F
:1006660024FFFFEE34FFFEC3E546954704FCEFA8E2
:1006760004088005C333CE33CED8F9F54C524BE58A
:100686004BA804088002C313D8FCF54BAB48AA4913
:05069600A94A12009CBE
:02069B00AF05A9
:01069D00223A
:100B61008A0D8B0E75120075130075140D7B011221
:030B7100058722D3
:04058700AC03AE050E
:10058B00E4FD120B25AD078EDA120BB0EF30E10252
:10059B00E4FDAE041CEED39400403EED64017039D3
:1005AB00AB12AA13A9141200E2E5F0F5DA120BB0A4
:1005BB00EF30E102E4FDED6020AB12E514F924020B
:1005CB00F514E513FA3400F5131200E2F5DA120B09
:0E05DB00B0EF30E1BDE4FD80B943E220AF0592
:0105E90022EF
:03000000020328D0
:0C032800787FE4F6D8FD75817902036F40
:10005600BB010689828A83E0225002E722BBFE02A8
:09006600E32289828A83E49322DB
:10006F00BB010CE58229F582E5833AF583E0225046
:10007F0006E92582F8E622BBFE06E92582F8E22290
:0D008F00E58229F582E5833AF583E49322AA
:10009C00BB010689828A83F0225002F722BBFE0143
:0200AC00F3223D
:1000AE00F8BB010DE58229F582E5833AF583E8F088
:1000BE00225006E92582C8F622BBFE05E92582C834
:0200CE00F2221C
:1000D000EF8DF0A4A8F0CF8CF0A428CE8DF0A42E44
:0200E000FE22FE
:1000E200BB010A89828A83E0F5F0A3E022500687E9
:1000F200F009E71922BBFE07E3F5F009E3192289AB
:0B010200828A83E493F5F074019322DD
:10080D00C2D5E830E70FB2D5E4C39BFBE49AFAE416
:10081D0099F9E498F8EC30E717B2D51208431201B4
:10082D0049E4C39BFBE49AFAE499F9E498F8800350
:10083D0012014930D50DE4C39FFFE49EFEE49DFDFA
:04084D00E49CFC2209
:10033400020B74E493A3F8E493A34003F68001F260
:1003440008DFF48029E493A3F85407240CC8C333CA
:10035400C4540F4420C8834004F456800146F6DF99
:10036400E4800B0102040810204080900AF3E47E2C
:10037400019360BCA3FF543F30E509541FFEE4938E
:10038400A360010ECF54C025E060A840B8E493A355
:10039400FAE493A3F8E493A3C8C582C8CAC583CA80
:1003A400F0A3C8C582C8CAC583CADFE9DEE780BE38
:010B0B0000E9
:10010D0075F008758200EF2FFFEE33FECD33CDCCA9
:10011D0033CCC58233C5829BED9AEC99E58298402C
:10012D000CF582EE9BFEED9AFDEC99FC0FD5F0D609
:10013D00E4CEFBE4CDFAE4CCF9A88222B800C1B933
:10014D000059BA002DEC8BF084CFCECDFCE5F0CB71
:10015D00F97818EF2FFFEE33FEED33FDEC33FCEBAA
:10016D0033FB10D703994004EB99FB0FD8E5E4F965
:10017D00FA227818EF2FFFEE33FEED33FDEC33FC52
:10018D00C933C910D7059BE99A4007EC9BFCE99A46
:10019D00F90FD8E0E4C9FAE4CCFB2275F010EF2F8B
:1001AD00FFEE33FEED33FDCC33CCC833C810D7078B
:1001BD009BEC9AE899400AED9BFDEC9AFCE899F8C6
:0E01CD000FD5F0DAE4CDFBE4CCFAE4C8F92259
:00000001FF
